:10000000F0820020E10200007D0300007D0300007B
:100010007D0300007D0300007D0300000000000060
:100020000000000000000000000000007D03000050
:100030007D030000000000007D0300007D03000040
:100040007D0300007D0300007D0300007D030000B0
:100050007D0300007D0300007D0300007D030000A0
:100060007D0300007D0300007D0300007D03000090
:100070007D0300007D0300007D0300007D03000080
:100080007D0300007D0300007D0300007D03000070
:100090007D0300007D0300007D0300007D03000060
:1000A0007D0300007D0300007D0300007D03000050
:1000B0007D0300007D0300007D0300007D03000040
:1000C0007D0300007D0300007D0300007D03000030
:1000D0007D0300007D0300007D0300007D03000020
:1000E0007D0300007D030000000000000000000010
:1000F00000000000CD2800007D0300007D0300000B
:100100007D0300007D0300007D0300007D030000EF
:100110007D0300007D0300007D0300007D030000DF
:100120007D0300007D0300007D0300007D030000CF
:100130007D0300007D0300007D0300007D030000BF
:100140007D0300007D0300007D0300007D030000AF
:100150007D0300007D03000000000000000000009F
:10016000000000000000000000000000000000008F
:10017000000000000000000000000000000000007F
:100180007D0300007D0300007D0300007D0300006F
:10019000000000007D0300007D0300007D030000DF
:1001A0007D0300007D0300007D0300007D0300004F
:1001B0007D0300007D0300007D0300007D0300003F
:1001C0007D0300007D0300007D0300007D0300002F
:1001D0007D0300000000000000000000000000009F
:1001E0000000000000000000000000004136000098
:1001F0007D0300007D0300007D030000000000007F
:100200000000000000000000000000007D0300006E
:100210007D0300007D0300007D030000B933000072
:100220007D0300007D0300007D0300007D030000CE
:100230007D0300007D0300007D0300007D030000BE
:10024000000000007D0300007D0300007D0300002E
:100250007D0300007D0300007D0300007D0300009E
:100260000000000010B5054C237833B9044B13B1DE
:100270000448AFF300800123237010BDAC000020C0
:1002800000000000AC4700000C4B43B10C480D4986
:1002900010B5AFF300800C48036823B910BD0A48BD
:1002A000036833B97047094B002BF7D0BDE8104005
:1002B0001847064B002BF5D0184700BF0000000080
:1002C000AC470000B0000020AC4700000000000078
:1002D00080B500AF014B984700BF80BDA90E00005C
:1002E00080B582B000AF1C4B7B601C4B3B607A68D2
:1002F0003B689A420CD007E03B681A1D3A607A6866
:10030000111D796012681A603B68154A9342F3D355
:10031000144B3B6004E03B681A1D3A6000221A60EF
:100320003B68114A9342F6D3104B7B60104A7B68BE
:1003300023F07F0393600E4A0D4BD3F8883043F4CB
:100340007003C2F88830BFF34F8FBFF36F8F094B34
:100350009847094B9847FEE7AC4700000000002093
:10036000AC000020AC000020F002002000000000E3
:1003700000ED00E07D450000E537000080B400AFEF
:10038000FEE780B485B000AFF8600B467A60FB7280
:10039000FA7AFB682032796843F8221000BF1437DC
:1003A000BD465DF8047B704780B483B000AF7860D1
:1003B0007B681B6943F400527B681A6100BF0C37ED
:1003C000BD465DF8047B704780B483B000AF7860B1
:1003D0007B681B6943F400127B681A6100BF0C370D
:1003E000BD465DF8047B704780B483B000AF786091
:1003F0007B685B6943F480527B685A6100BF0C37AD
:10040000BD465DF8047B704780B483B000AF786070
:100410007B685B6943F480427B685A6100BF0C379C
:10042000BD465DF8047B704780B483B000AF786050
:100430007B685B6943F400427B685A6100BF0C37FC
:10044000BD465DF8047B704780B483B000AF786030
:100450007B689B6943F080027B689A6100BF0C3720
:10046000BD465DF8047B704780B483B000AF786010
:100470007B689B6943F400627B689A6100BF0C371C
:10048000BD465DF8047B704780B483B000AF7860F0
:100490007B68DB6943F400527B68DA6100BF0C378C
:1004A000BD465DF8047B704780B483B000AF7860D0
:1004B0007B68DB6943F480427B68DA6100BF0C37FC
:1004C000BD465DF8047B704780B483B000AF7860B0
:1004D0007B681B6A43F080027B681A6200BF0C379E
:1004E000BD465DF8047B704780B483B000AF786090
:1004F0007B681B6A43F480727B681A6200BF0C370A
:10050000BD465DF8047B704780B485B000AFF860ED
:100510000B467A60FB72FB7AFA68DB0113440833FE
:100520007A681A6000BF1437BD465DF8047B7047D7
:1005300080B485B000AFF8600B467A60FB72FB7A3E
:10054000FA68DB01134404337A681A6000BF143779
:10055000BD465DF8047B704780B485B000AFF8609D
:100560000B467A60FB72FB7AFA68DB01134418339E
:100570007A681A6000BF1437BD465DF8047B704787
:1005800080B485B000AFF8600B467A60FB72FB7AEE
:10059000FA68DB01134414337A681A6000BF143719
:1005A000BD465DF8047B704780B485B000AF7860CD
:1005B000084611461A460346FB700B46BB701346AD
:1005C0007B70FA78BB787968D2010A4413443033DF
:1005D0001B78FB73FB7B23F00F03FB737B7803F02B
:1005E0000F03DAB2FB7B1343FB73FA78BB787968AD
:1005F000D2010A4413443033FA7B1A7000BF143717
:10060000BD465DF8047B704780B485B000AF78606C
:10061000084611461A460346FB700B46BB7013464C
:100620007B70FA78BB787968D2010A44134430337E
:100630001B78FB73FB7B03F00F03FB737B781B01C1
:10064000DAB2FB7B1343FB73FA78BB787968D2018B
:100650000A4413443033FA7B1A7000BF1437BD4686
:100660005DF8047B704780B485B000AF78600846C1
:1006700011461A460346FB700B46BB7013467B704F
:10068000FA78BB787968D2010A44134440331B7866
:10069000FB73FB7B23F00103FB737A78FB7B134333
:1006A000FB73FA78BB787968D2010A44134440336B
:1006B000FA7B1A7000BF1437BD465DF8047B7047A3
:1006C00090B482B000AF78600B46FB701346BB70ED
:1006D000FA78BB78F878B9787C68C0012044014486
:1006E00040310978C9B241F00401C8B27968D20139
:1006F0000A441344403302461A7000BF0837BD460F
:1007000090BC704790B482B000AF78600B46FB702D
:100710001346BB70FA78BB78F878B9787C68C0016A
:100720002044014440310978C9B221F00401C8B223
:100730007968D2010A441344403302461A7000BF5C
:100740000837BD4690BC704780B485B000AFF860F4
:100750000B467A60FB72FB7AFA68DB01134428339C
:100760007A681A6000BF1437BD465DF8047B704795
:1007700080B582B000AF03463960FB711346BB7190
:10078000BB79012B1CD0022B37D0002B4ED1FB792B
:100790003A6819462A482B4B98473B689BB243F06E
:1007A0008042FB7919462648274B98473B681B0C2B
:1007B00043F04042FB7919462148234B98473AE0E1
:1007C000FB793A6819461E481E4B98473B689BB216
:1007D00043F0804343F40033F9791A4618481A4B22
:1007E00098473B681B0C43F0404343F40033F979CE
:1007F0001A461348144B98471DE0FB793A6819468E
:100800000F48124B98473B689BB243F08042FB79FC
:1008100019460B480C4B98473B681B0C43F0404271
:10082000FB7919460648084B984704E046220849D8
:100830000020084B984700BF0837BD4680BD00BF69
:100840000080004131050000490700000905000053
:10085000C44500006111000080B582B000AF0346BE
:100860003960FB711346BB71BB79002B06D0FB7955
:100870003A6819460648074B984705E0FB793A68FD
:1008800019460348044B984700BF0837BD4680BD52
:1008900000800041590500008105000080B582B04C
:1008A00000AF0346FB710B46BB7113467B717B792E
:1008B000012B0AD0022B1FD0002B34D1BA79FB793F
:1008C00019461E481E4B984733E0BB7901229A40D7
:1008D000FB79194619481B4B9847BA79FB79194699
:1008E0001648194B9847BB7901229A40FB79194663
:1008F0001248164B98471CE0BB7901229A40FB79BD
:1009000019460E480F4B9847BA79FB7919460B48A0
:100910000D4B9847BB7901229A40FB79194607484D
:100920000B4B984705E089220A4900200A4B98475B
:1009300000BF00BF0837BD4680BD00BF008000413A
:100940000507000031050000C10600005905000040
:1009500081050000C44500006111000090B585B01C
:1009600000AF786039607B685B09FB737B68DBB242
:1009700003F01F03BB733B68B3F1FF3F06D1BA7BA3
:10098000F97B00231248134CA0471DE0BA7BF97B8A
:1009900001230F480F4CA047BB7B03F00103002B42
:1009A00009D0BB7B5B08DAB23B68DBB2F97B084855
:1009B000094CA04708E0BB7B5B08DAB23B68DBB2BE
:1009C000F97B0348054CA04700BF1437BD4690BDD6
:1009D000008000416706000009060000A90500002C
:1009E00080B582B000AF03460A46FB711346BB7167
:1009F000FB795B09D8B2FB7903F01F03DBB2BA794C
:100A00001946034B984700BF0837BD4680BD00BF5D
:100A10009D08000080B582B000AF78603960396809
:100A20007868034B984700BF0837BD4680BD00BFBC
:100A30005D09000080B582B000AF03460A46FB7135
:100A40001346BB71FB795B09D8B2FB7903F01F0336
:100A5000012202FA03F3BA791946034B984700BF03
:100A60000837BD4680BD00BF7107000080B582B069
:100A700000AF03460A46FB711346BB71FB795B0965
:100A8000D8B2FB7903F01F03012202FA03F3BA790B
:100A90001946034B984700BF0837BD4680BD00BFCD
:100AA0005908000080B500AF014B984700BF80BDDA
:100AB000C11D000080B500AF024B984703461846A1
:100AC00080BD00BFED1C000080B500AF00210220FA
:100AD000074B984707490220074B984700210320FE
:100AE000034B984705490320034B984700BF80BD3F
:100AF000350A000001000200150A00000100030091
:100B000080B500AF0448054B98474022282104488F
:100B1000044B984700BF80BD00080040C904000096
:100B2000001C00408303000080B500AF054B9847D0
:100B3000054B9847002205490548064B984700BFDA
:100B400080BD00BF010B0000C90A0000001C00436B
:100B5000A0010020990F000080B500AF00212820DF
:100B6000034B984703492820034B984700BF80BD9B
:100B7000350A000001002800150A000080B500AF0A
:100B80000448054B9847402229210448044B9847C4
:100B900000BF80BD00080040E9040000001C0040C8
:100BA0008303000080B500AF054B9847054B98477D
:100BB000002205490548064B984700BF80BD00BF8D
:100BC0007D0B0000590B000000200043A401002011
:100BD000990F000080B400AF00BFBD465DF8047BF4
:100BE0007047000080B500AF0448054B984740228D
:100BF00021210448044B984700BF80BD00080040F5
:100C0000A9040000001C00408303000080B500AF71
:100C1000034B9847034B9847034B984700BF80BD51
:100C2000E50B0000B50A0000D50B000080B500AF51
:100C300040220B210748084B984740220C210548C9
:100C4000054B98470548064B9847064B984700BF09
:100C500080BD00BF001C004083030000000800406E
:100C6000490400007910000080B500AF01212B205D
:100C70001B4B984700212B201A4B98471A492B20D1
:100C80001A4B984702210820154B9847002108204D
:100C9000174B984700210820124B98471549082008
:100CA000124B9847022109200D4B9847002109203B
:100CB0000F4B9847002109200A4B98470E490920FD
:100CC0000A4B984701212A20054B984700212A20EA
:100CD000044B984709492A20044B984700BF80BD20
:100CE000350A0000E109000007002B00150A00008A
:100CF0006D0A0000070008000700090007002A002D
:100D000080B500AF0548064B98470448054B984707
:100D10000248054B984700BF80BD00BF0008004057
:100D2000A9030000C90300008904000080B500AFDA
:100D3000044B984704490548054B9847054B98478D
:100D400000BF80BD010D000000340042A80100205A
:100D50008D100000690C000080B500AF0021042058
:100D6000114B984702210420104B9847104904204A
:100D7000104B9847002105200B4B98470221052076
:100D80000A4B98470C4905200A4B98470121062039
:100D9000064B984700210620084B98470849062033
:100DA000044B984700BF80BD6D0A0000350A000063
:100DB00003000400150A000003000500E10900001B
:100DC0000300060080B500AF402207210648074B0C
:100DD0009847412203210448044B98470448054B97
:100DE000984700BF80BD00BF001C00408303000087
:100DF00000080040E903000080B500AF0648074B3B
:100E000098470548064B9847402209210548064B5C
:100E1000984700BF80BD00BF0008004009040000E3
:100E200029040000001C00408303000080B500AFCF
:100E30000C4915200C4B98470C4916200A4B984733
:100E40000B491020084B98470A491120064B984738
:100E500009491220044B984708491320024B984730
:100E600000BF80BD06001500150A00000600160030
:100E70000600100006001100060012000600130014
:100E800080B500AF0448054B98474022192104481B
:100E9000044B984700BF80BD000800406904000073
:100EA000001C00408303000080B500AF284B98472A
:100EB00000210E20274B984702210E20264B9847F1
:100EC0004FF0FF310E20254B984701211720224B70
:100ED000984701211720224B98474FF0FF311720E8
:100EE0001E4B9847012118201B4B984701211820C1
:100EF0001B4B98474FF0FF311820184B98470121A2
:100F00003620154B984701213620154B98474FF056
:100F1000FF313620114B9847124B9847124B984798
:100F2000124B9847124B9847124B9847124B9847D1
:100F3000124B9847124B9847124B9847124B9847C1
:100F4000124B9847124B9847124B984700BF80BDF1
:100F5000A50A00006D0A0000350A0000150A00000D
:100F6000E1090000290B0000A50B00000D0C00009A
:100F70002D0C00002D0D0000C50D0000852B00007C
:100F8000590D0000F90D0000B9300000810E00007D
:100F90002D0E0000652E000080B584B000AFF86013
:100FA000B9607A60FB68002B04D0BB68002B01D0CD
:100FB000012300E0002303F00103DBB239220749DB
:100FC0001846074B9847FB68B9681846054B984781
:100FD000034618461037BD4680BD00BFE0450000FF
:100FE00061110000E51B000080B582B000AF7860A1
:100FF0000B46FB707B68002B14BF01230023DBB280
:101000004E2207491846074B98477B68FA781146E5
:101010001846054B9847002318460837BD4680BD43
:10102000E045000061110000391C000080B485B06B
:1010300000AF7860EFF31083FB60FA687B681A609A
:1010400072B6BFF35F8F00BF1437BD465DF8047BF7
:10105000704780B485B000AF7860BFF35F8F7B6866
:101060001B68FB60FB6883F3108800BF1437BD4624
:101070005DF8047B7047000080B500AF024B9847D5
:101080000346184680BD00BF991E000080B582B09F
:1010900000AF786039607B68002B04D03B68002B80
:1010A00001D0012300E0002303F00103DBB2312271
:1010B00006491846064B98477B6839681846054B21
:1010C0009847034618460837BD4680BDFC450000DA
:1010D000611100006926000080B582B000AF786021
:1010E0007B68002B14BF01230023DBB23F2206499B
:1010F0001846064B98477B681846054B98470346A9
:1011000018460837BD4680BDFC450000611100004F
:10111000D926000080B582B000AF786039607B6866
:10112000002B04D03B68002B01D0012300E00023FA
:1011300003F00103DBB24D2206491846064B9847DF
:101140007B6839681846054B9847034618460837A8
:10115000BD4680BDFC45000061110000252800004F
:1011600080B485B000AF0346B9607A60FB73FB7B47
:1011700083F00103DBB2002B00D000BE00BF1437A8
:10118000BD465DF8047B704780B485B000AFF86061
:101190000B467A60FB72FB7AFA68DB011344183362
:1011A0007A681A6000BF1437BD465DF8047B70474B
:1011B00080B485B000AFF8600B467A60FB72FB7AB2
:1011C000FA68DB01134414337A681A6000BF1437DD
:1011D000BD465DF8047B704780B582B000AF034622
:1011E0003960FB711346BB71BB79002B06D0FB79CC
:1011F0003A6819460648074B984705E0FB793A6874
:1012000019460348044B984700BF0837BD4680BDC8
:101210000080004189110000B111000080B582B04A
:1012200000AF03460A46FB711346BB71FB795B09AD
:10123000D8B2FB7903F01F03012202FA03F3BA7953
:101240001946034B984700BF0837BD4680BD00BF15
:10125000D911000080B58AB000AFF860B9601146BE
:101260001A460B46FB711346BB8007F110030022A0
:101270001A605A609A60DA601A615A613B7C43F0E6
:1012800020033B743B7C43F080033B747B7C022255
:1012900062F305137B74FB793B75BA88FB791B04F9
:1012A0001344BB61BB68FB61FB683B6207F1100341
:1012B00019460348034B984700BF2837BD4680BDF9
:1012C000A80100201511000080B58AB000AFF860B9
:1012D000B96011461A460B46FB711346BB8007F1F5
:1012E000100300221A605A609A60DA601A615A612B
:1012F0003B7C43F020033B743B7C43F080033B7416
:1013000003233B754FF44033BB614023FB61FB6813
:101310007B6207F1100319460348044B984700BF4E
:101320002837BD4680BD00BFA80100201511000070
:1013300080B487B000AFF860B9607A603B6097ED29
:10134000027AD7ED017A77EE677AC7ED057AFB6806
:10135000043393ED007AD7ED056AFB680833D3EDCB
:10136000007A76EEE76AFB68083393ED006AD7ED02
:10137000057A36EE276AD7ED087A66EE275A224BB1
:10138000D3ED007A85EEA76AF0EE005AC6EE257A14
:1013900076EEA76AD7ED007A66EEA77A77EE277A1F
:1013A000FB68C3ED007AFB6893ED007AD7ED097A0C
:1013B000B4EEE77AF1EE10FA03DDFB687A6A1A60A0
:1013C00012E0FB6893ED007AD7ED097AF1EE677AC7
:1013D000B4EEE77AF1EE10FA06D5D7ED097AF1EE20
:1013E000677AFB68C3ED007AFB680433FA68126819
:1013F0001A60FB6808337A691A6000BF1C37BD4663
:101400005DF8047B704700BF0800002080B487B0FF
:1014100000AFF860B9607A603B6097ED027AD7ED73
:10142000017A77EE677AC7ED057A97ED057AD7ED01
:10143000007A67EE277AFB68C3ED007AFB6893EDCC
:10144000007AD7ED087AB4EEE77AF1EE10FA03DD10
:10145000FB683A6A1A6013E0FB6893ED007AD7EDF7
:10146000087AF1EE677AB4EEE77AF1EE10FA00D47A
:1014700006E0D7ED087AF1EE677AFB68C3ED007AF3
:1014800000BF1C37BD465DF8047B704780B500AFD8
:1014900000210E201C4B984706211C481C4B9847E6
:1014A0001A4B1B781B021AB2184B5B781BB2134302
:1014B0001BB29AB2174B1A80144B9B789A03134BAA
:1014C000DB789B011343114A12799208D2B213437D
:1014D00007EE903AF8EEE77A0F4BC3ED007A0B4B2C
:1014E0001B7903F00203DAB20C4B1A70074B1B791D
:1014F00003F00103DAB20A4B1A7001210E20024BED
:10150000984700BF80BD00BF1D12000000000020F2
:10151000552C0000C8000020D4000020D800002076
:10152000D90000200000000098B500AF00210E2077
:10153000334B984706213348334B9847314B1B7840
:101540001B021AB22F4B5B781BB213431BB29AB229
:101550002E4B1A802B4B9B789A032A4BDB789B01EE
:101560001343284A12799208D2B2134307EE903AF5
:10157000F8EEE77A264BC3ED007A254B93ED007A1F
:10158000244BD3ED007A77EE677A214BC3ED007AD6
:101590001F4B93ED007ADFED206AC7EE267A77EED7
:1015A000A77A1E4B17EE900A98471D4C12A3D3E959
:1015B0000023A04703460C4619462246194B08460D
:1015C000114698470246184B1A600E4B1B7903F0E0
:1015D0000203DAB2154B1A700A4B1B7903F00103B0
:1015E000DAB2134B1A7001210E20054B984700BF49
:1015F00098BD00BFAFF300807A008BFCFA21094050
:101600001D12000000000020552C0000C800002022
:10161000CC000020D4000020F8FFFF49114000005A
:10162000B9400000DD440000D0000020D8000020B8
:10163000D900002080B483B000AF7860396000BF6B
:101640007B681A6B3B681340002BF9D100BF0C3745
:10165000BD465DF8047B704780B483B000AF78600E
:1016600039607B681A6B3B681340002B14BF012361
:101670000023DBB218460C37BD465DF8047B70478B
:1016800080B582B000AF78607B681B889BB243F066
:1016900002039AB27B681A8003217868024B98474C
:1016A00000BF0837BD4680BD3516000080B582B04A
:1016B00000AF78607B681B889BB223F002039AB26C
:1016C0007B681A8003217868024B984700BF08376F
:1016D000BD4680BD3516000080B584B000AF78608F
:1016E0000B467B8003217868064B98477B681B88F4
:1016F000FB81FA897B881340FB81FB8918461037F0
:10170000BD4680BD3516000080B582B000AF786060
:101710000B467B807B687A881A8003217868034BAC
:10172000984700BF0837BD4680BD00BF3516000092
:1017300080B483B000AF78600B46FB707B68FA78AA
:101740009A7000BF0C37BD465DF8047B704780B4CB
:1017500083B000AF78600B46FB707B68FA78DA7074
:1017600000BF0C37BD465DF8047B704780B582B082
:1017700000AF78600B467B807B687A889A8040F661
:10178000FF717868024B984700BF0837BD4680BD9F
:101790003516000080B582B000AF78600B467B80C4
:1017A0007B687A88DA8040F6FF717868024B984748
:1017B00000BF0837BD4680BD3516000080B582B039
:1017C00000AF78600B46FB707B68FA781A7240F6BF
:1017D000FF717868024B984700BF0837BD4680BD4F
:1017E0003516000080B582B000AF78600B46FB7004
:1017F0007B68FA789A7240F6FF717868024B9847D6
:1018000000BF0837BD4680BD3516000080B582B0E8
:1018100000AF78600B46FB707B68FA78DA7240F6AE
:10182000FF717868024B984700BF0837BD4680BDFE
:101830003516000080B582B000AF78600B467B8023
:101840007B687A889A8180217868034B984700BF2B
:101850000837BD4680BD00BF3516000080B582B098
:1018600000AF78600B467B807B687A88DA814FF422
:1018700080717868024B984700BF0837BD4680BD2D
:101880003516000080B582B000AF78600B467B80D3
:101890007B687A881A824FF400717868024B984707
:1018A00000BF0837BD4680BD3516000080B582B048
:1018B00000AF78600B467B807B687A885A824FF451
:1018C00080617868024B984700BF0837BD4680BDED
:1018D0003516000080B483B000AF78600B467B8083
:1018E0007B687A88A3F8482000BF0C37BD465DF8B6
:1018F000047B704780B483B000AF78607B6803F1ED
:101900003D43A3F5E0539B0ADBB218460C37BD46B6
:101910005DF8047B7047000080B584B000AF78604C
:101920007B681846114B98470346BB730023FB7333
:101930000EE0FB7B0E4A162101FB03F313441B78D8
:10194000BA7B9A4201D1FB7B0BE0FB7B0133FB733B
:10195000FB7B012BEDD9882206490020064B9847D6
:10196000002318461037BD4680BD00BFF5180000A3
:1019700018460000444600006111000080B584B0A4
:1019800000AF78600B46FB700023FB817B68814AC7
:10199000934220D14FF080131B685B099BB21B025E
:1019A0009BB203F4E0639AB24FF080131B681B0AEA
:1019B0009BB21B019BB203F070039BB213439AB21C
:1019C0004FF080131B689B089BB203F007039BB288
:1019D0001343FB8123E07B686F4A93421FD14FF092
:1019E00080131B68DB0C9BB21B029BB203F4E06309
:1019F0009AB24FF080131B689B0D9BB21B019BB2E8
:101A000003F070039BB213439AB24FF080131B682C
:101A10001B0C9BB203F007039BB21343FB81012114
:101A200078685E4B9847034683F00103DBB2002BD6
:101A300011D0022178685A4B98470346002B06D0F4
:101A40007868584B984702217868574B984701218E
:101A50007868564B984701217868534B9847FB8923
:101A600019467868524B9847FB78524A162101FB79
:101A700003F3134404331B88194678684E4B984788
:101A8000FB784C4A162101FB03F3134406331B7801
:101A900019467868494B9847FB78464A162101FB5E
:101AA00003F3134407331B7819467868444B98476F
:101AB000FB78404A162101FB03F3134408331B88CB
:101AC000194678683F4B9847FB783A4A162101FB44
:101AD00003F313440A331B78194678683A4B984746
:101AE000FB78344A162101FB03F313440B331B78B4
:101AF00019467868354B9847FB782E4A162101FB2A
:101B000003F313440C331B8819467868304B98470D
:101B1000FB78284A162101FB03F313440E331B887C
:101B2000194678682B4B9847FB78224A162101FB0F
:101B300003F3134410331B8819467868264B9847E3
:101B4000FB781C4A162101FB03F3134412331B8854
:101B500019467868214B9847FB78164A162101FBF5
:101B600003F3134414331B78194678681C4B9847C9
:101B7000FB78104A162101FB03F3134402331B8840
:101B800019467868094B9847002318461037BD4618
:101B900080BD00BF001C0043002000435916000018
:101BA000D9160000AD160000351600000917000018
:101BB000D51800001846000095170000BD1700005A
:101BC000311700006D170000E51700000D18000028
:101BD000351800005D18000085180000AD180000E1
:101BE0004F17000080B582B000AF786039607B6825
:101BF000002B14BF01230023DBB2D9220A49184667
:101C00000A4B98477B683A681A603B681846084B4D
:101C10009847034619463868064B984703461846C6
:101C20000837BD4680BD00BF44460000611100007A
:101C3000191900007D19000080B582B000AF7860EE
:101C40000B46FB707B681B681846034B984700BF28
:101C50000837BD4680BD00BF8116000080B483B048
:101C600000AF78607B681B78DBB243F00203DAB226
:101C70007B681A7000BF0C37BD465DF8047B704767
:101C800080B483B000AF78600B46FB707B68FA7855
:101C90001A7000BF0C37BD465DF8047B704780B4F6
:101CA00083B000AF78600B46FB701346BB70FB78C7
:101CB0007A681344BA781A7100BF0C37BD465DF8D4
:101CC000047B704780B485B000AFF8600B467A6043
:101CD000FB72FA7AFB680232796843F8221000BF7F
:101CE0001437BD465DF8047B7047000080B582B0B4
:101CF00000AF00211A481B4B984701211848194B87
:101D000098470023FB710BE0FB79174A13441A7CB8
:101D1000FB7919461248154B9847FB790133FB7143
:101D2000FB79012BF0D90023FB710BE0FB790E4A04
:101D300052F82320FB79194609480D4B9847FB7947
:101D40000133FB71FB79032BF0D9002319460448BA
:101D5000044B9847002318460837BD4680BD00BF96
:101D600000380042811C00005C4600009F1C0000FF
:101D7000C51C000080B500AF0248034B9847002304
:101D8000184680BD003800425D1C000080B483B05E
:101D900000AF78600B467B807B681B889AB27B889B
:101DA0001B029BB203F470639BB213439AB27B682D
:101DB0001A8000BF0C37BD465DF8047B70470000F9
:101DC00080B500AF05210A480A4B98470A4B98474F
:101DD0000A4B98470A4B984702200A4B98470A4BF0
:101DE000984740F6FD70074B984700BF80BD00BF85
:101DF000004000418D1D0000652000003D230000D3
:101E0000E11F0000791F00005923000080B485B055
:101E100000AFF8600B467A60FB72FA7AFB684832D2
:101E2000796843F8221000BF1437BD465DF8047B83
:101E3000704780B483B000AF78600B46FB701346E8
:101E4000BB70FB787A680433DB001344BA785A71AC
:101E5000FB78BA78D243D1B27A680433DB001344FA
:101E60000A461A7100BF0C37BD465DF8047B704707
:101E700080B485B000AFF8600B467A60FB72FA7AE6
:101E8000FB680432796843F8321000BF1437BD464E
:101E90005DF8047B7047000080B582B000AF00237E
:101EA000FB710BE0FB79184AD35C1A46FB791946A3
:101EB0001648174B9847FB790133FB71FB79422B8E
:101EC000F0D90023FB7116E0FB79124A32F8133087
:101ED0001A46FB7919460D480F4B9847FB790F4A74
:101EE00052F82330DAB2FB79194608480C4B984770
:101EF000FB790133FB71FB791F2BE5D900231846D1
:101F00000837BD4680BD00BF7046000000E00041BC
:101F10000D1E0000B4460000711E0000F4460000D3
:101F2000331E000080B483B000AF7860396000BF1A
:101F30007B685A683B681340002BF9D100BF0C370F
:101F4000BD465DF8047B704780B584B000AFF86093
:101F50000B467A60FB72FA7AFB680832796843F8BC
:101F6000221043F6FD71F868024B984700BF103706
:101F7000BD4680BD251F000080B582B000AF7860EF
:101F80007B6803F00103002B04D0094A00210948B3
:101F9000094B98477B6803F00203002B04D0074AE3
:101FA00001210448044B984700BF0837BD4680BD57
:101FB00006090100001C0040491F00000401010047
:101FC00080B483B000AF78600B46FB707B68FA7812
:101FD0005A7100BF0C37BD465DF8047B70470000A6
:101FE00080B582B000AF054B7B6001217868044B5F
:101FF000984700BF0837BD4680BD00BF00080040BD
:10200000C11F000080B483B000AF78600B46FB7046
:102010007B68FA781A7400BF0C37BD465DF8047B04
:10202000704780B485B000AF78607B68DB69FB6087
:10203000FB681B0A03F03F03FB60FB68184614377C
:10204000BD465DF8047B704780B483B000AF786014
:1020500039607B683A68DA6100BF0C37BD465DF8CD
:10206000047B704780B582B000AF0C4B7B600023CF
:102070007B8078680A4B984703467B807B881B02ED
:1020800003F47C5319467868064B98470121786819
:10209000054B984700BF0837BD4680BD001400407F
:1020A00023200000492000000520000080B483B0F8
:1020B00000AF7860396000BF7B685A683B681340A6
:1020C000002BF9D100BF0C37BD465DF8047B70478B
:1020D00080B483B000AF78607B685B689B0803F0D6
:1020E0000103002B14BF01230023DBB218460C3779
:1020F000BD465DF8047B704780B483B000AF786064
:102100007B685B6818460C37BD465DF8047B7047FA
:1021100080B586B000AFF8600B467A60FB72FA7A41
:10212000FB68083253F822307B617B6923F00F0390
:102130007B617B6803F00F037A6913437B61FA7A52
:10214000FB680832796943F8221043F6FD71F8689C
:10215000024B984700BF1837BD4680BDAD20000038
:1021600080B483B000AF78607B681B691B0A03F002
:102170000103002B14BF01230023DBB218460C37E8
:10218000BD465DF8047B704780B485B000AF7860D1
:1021900039607B681B69FB60FA683B681340FB6031
:1021A000FB6818461437BD465DF8047B704780B461
:1021B00083B000AF78600B46FB707B68FA781A77C3
:1021C00000BF0C37BD465DF8047B704780B485B016
:1021D00000AF78607B6893F82030FB73FB7B03F0E3
:1021E0000103FB73FB7B002B14BF01230023DBB235
:1021F00018461437BD465DF8047B704780B483B041
:1022000000AF78600B46FB707B68FA7883F820207B
:1022100000BF0C37BD465DF8047B704780B483B0C7
:1022200000AF786039607B683A685A6200BF0C374B
:10223000BD465DF8047B704780B483B000AF786022
:102240007B685B6A18460C37BD465DF8047B7047B7
:1022500080B483B000AF786039607B683A689A6276
:1022600000BF0C37BD465DF8047B704780B485B075
:1022700000AF78607B6893F82C30FB73FB7B5B08C6
:10228000DBB203F00103FB73FB7B002B14BF0123C4
:102290000023DBB218461437BD465DF8047B704757
:1022A00080B485B000AF78607B6893F82C30FB7306
:1022B000FB7B9B08DBB203F00103FB73FB7B002B72
:1022C00014BF01230023DBB218461437BD465DF866
:1022D000047B704780B485B000AF78607B6893F86A
:1022E0002C30FB73FB7BDB08DBB203F00103FB73D9
:1022F000FB7B002B14BF01230023DBB218461437ED
:10230000BD465DF8047B704780B485B000AF78604F
:102310007B6893F82C30FB73FB7B1B09DBB203F06B
:102320000103FB73FB7B002B14BF01230023DBB2F3
:1023300018461437BD465DF8047B704780B483B0FF
:1023400000AF044B7B6000BF0C37BD465DF8047BDB
:10235000704700BF0010004080B584B000AF464B0E
:10236000FB60042200214548454B984700BF434885
:10237000444B98470346002BF9D10021F868424BA3
:1023800098474249F868424B984700BFF868414B6C
:1023900098470346002BF9D10021F8683E4B984737
:1023A00000BFF8683D4B98470346002BF9D1422304
:1023B000FB72FB7A1946F868334B984700BFF86800
:1023C000374B98470346002BF9D14FF4E451F86896
:1023D000344B9847F868344B984703461946F868D9
:1023E000304B984700BFF868304B98470346002BA6
:1023F000F9D18023FB72FB7A1946F868264B98477F
:1024000000BFF868254B98470346002BF9D1F868C0
:10241000274B98470346002B0CD04FF410637B608A
:1024200000BF7968F868234B984702467B689A4258
:10243000F7D109E000BFF8681F4B9847034683F0C7
:102440000103DBB2002BF6D100BF0C481B4B9847B1
:102450000346002BF9D1062200210848084B984773
:1024600000BF0648074B98470346002BF9D100BF31
:102470001037BD4680BD00BF00100040001C00406A
:1024800011210000D1200000AF2100000000010454
:102490005122000009230000FD210000A1220000BC
:1024A0006D2200001D22000039220000D52200000C
:1024B000CD2100008921000061210000F9200000E9
:1024C00080B483B000AF78607B68DB699B0A03F05F
:1024D0000103002B14BF01230023DBB218460C3785
:1024E000BD465DF8047B704780B483B000AF786070
:1024F0007B684FF48062DA6100BF0C37BD465DF83F
:10250000047B704780B483B000AF786039607B682B
:102510003A681A6000BF0C37BD465DF8047B70470F
:1025200080B483B000AF786039607B683A685A60E5
:1025300000BF0C37BD465DF8047B704780B483B0A4
:1025400000AF786039607B683A689A6000BF0C37EA
:10255000BD465DF8047B704780B483B000AF7860FF
:1025600039607B683A681A6300BF0C37BD465DF876
:10257000047B704780B485B000AF786039607B68B9
:102580005B6BFB60FB6823F0FF03FB603B68DBB227
:10259000FA681343FB607B68FA685A6300BF14371C
:1025A000BD465DF8047B704780B485B000AF7860AD
:1025B00039607B685B6BFB60FB6823F47F03FB6027
:1025C0003B681B0403F47F03FA681343FB607B68DA
:1025D000FA685A6300BF1437BD465DF8047B704744
:1025E00080B483B000AF786039607B683A689A63E2
:1025F00000BF0C37BD465DF8047B704780B483B0E4
:1026000000AF78607B689B6B18460C37BD465DF861
:10261000047B704780B485B000AFF860B9607A6021
:1026200007E0FB685A1CFA60BA68511CB96012785E
:102630001A707B685A1E7A60002BF2D100BF1437E3
:10264000BD465DF8047B704780B582B000AF78600E
:1026500003497868034B984700BF0837BD4680BDE3
:10266000020000010525000080B582B000AF78604F
:1026700039607B68002B04D03B68002B01D001231C
:1026800000E0002303F00103DBB240220D491846AD
:102690000D4B98477B683A681A607B681B6801217C
:1026A00018460A4B984711213868094B98474FF450
:1026B00030613868074B9847002318460837BD46F5
:1026C00080BD00BF744700006111000005250000B7
:1026D000212500003D25000080B582B000AF786064
:1026E0007B681B6802211846034B98470023184655
:1026F0000837BD4680BD00BF0525000080B584B009
:1027000000AF786039607B681B68FB603B681B78B2
:1027100003F02003DBB2002B05D03B689B68194611
:10272000F868134B98473B681B7803F01003DBB243
:10273000002B05D03B681B791946F8680D4B98476C
:102740003B681B7803F04003DBB2002B05D03B68ED
:102750005B791946F868084B98473B681B6819462F
:10276000F868064B984700BF1037BD4680BD00BFD4
:102770005925000075250000A9250000E12500006D
:1027800080B584B000AF786039607B681B68BB603F
:102790004FF08063FB603B681B7803F02003DBB2E3
:1027A000002B04D03B689B68FA681344FB60B86850
:1027B000184B98473B681B69002B03D13B685B694A
:1027C000002B01D0012300E0002303F00103DBB262
:1027D000822211491846114B98473B681B69002B10
:1027E00008D03B6819693B68DB681A46F8680C4BEF
:1027F000984707E03B6858693B68DB681A46F96808
:10280000074B9847BFF34F8FBFF36F8F00BF103751
:10281000BD4680BDFD250000744700006111000029
:102820001526000080B582B000AF78603960396845
:102830007868144B98473B681B7823F07F03DBB222
:10284000002B03D0396878680F4B98477B681B686A
:1028500018460E4B984700BF7B681B6818460C4B08
:102860009847034683F00103DBB2002BF4D17B6869
:102870001B681846074B9847002318460837BD4683
:1028800080BD00BFFD260000812700004926000012
:10289000C1240000E924000080B483B000AF786058
:1028A0007B689B78DBB218460C37BD465DF8047B2D
:1028B000704780B483B000AF78607B685B6818466F
:1028C0000C37BD465DF8047B7047000090B583B0BF
:1028D00000AF174B7B601748174B984703463B6088
:1028E0003B6803F00203002B0CD07B681B68002BB5
:1028F00008D07B681C680F48104B98470346184661
:10290000A04712E03B6803F00103002B0CD07B686A
:102910005B68002B08D07B685C680648074B9847CB
:1029200003461846A04700E000BF0C37BD4690BDE7
:10293000AC0100200000024199280000B3280000EB
:1029400080B483B000AF7860396000BF7B68DA691B
:102950003B681340002BF9D100BF0C37BD465DF832
:10296000047B704780B483B000AF786039607B68C7
:10297000DA693B681340002B14BF01230023DBB24C
:1029800018460C37BD465DF8047B704780B483B0B1
:1029900000AF78607B681B7EDBB218460C37BD4603
:1029A0005DF8047B7047000080B582B000AF7860AE
:1029B0007B681B6843F002027B681A600321786819
:1029C000024B984700BF0837BD4680BD4129000033
:1029D00080B584B000AF78600B46FB707B681B68E5
:1029E000FB60FB6823F00203FB60FB785B001A4688
:1029F000FB681343FB607B68FA681A600321786800
:102A0000024B984700BF1037BD4680BD41290000EA
:102A100080B582B000AF78607B681B6823F002024B
:102A20007B681A6003217868024B984700BF08371B
:102A3000BD4680BD4129000080B584B000AF7860FC
:102A400039607B681B68FB60FB6823F44033FB60E4
:102A50003B681B0403F44033FA681343FB607B6854
:102A6000FA681A6017217868024B984700BF103740
:102A7000BD4680BD4129000080B584B000AF7860BC
:102A800039607B681B68FB60FB6823F44013FB60C4
:102A90003B681B0503F44013FA681343FB607B6833
:102AA000FA681A6017217868024B984700BF103700
:102AB000BD4680BD4129000080B584B000AF78607C
:102AC000396003217868074B98477B681B68FB6077
:102AD000FA683B681340FB60FB6818461037BD4638
:102AE00080BD00BF4129000080B582B000AF786092
:102AF00039607B683A681A6003217868024B98470E
:102B000000BF0837BD4680BD4129000080B582B0B6
:102B100000AF786039607B683A685A60172178683E
:102B2000024B984700BF0837BD4680BD41290000D1
:102B300080B483B000AF78600B46FB707B68FA7896
:102B40001A7300BF0C37BD465DF8047B704780B434
:102B500083B000AF786039607B683A689A6200BFE2
:102B60000C37BD465DF8047B704780B483B000AF7E
:102B700078607B689B6A18460C37BD465DF8047B1D
:102B80007047000080B582B000AF01212048214B82
:102B90009847034683F00103DBB2002B16D00C23C9
:102BA0007B6002211A481C4B98470346002B06D035
:102BB00017481A4B984702211548194B98477B68CC
:102BC00043F0010319461248164B9847012110485B
:102BD000134B98478C210E48124B984700210C4804
:102BE000114B984702210A48104B98474FF408317F
:102BF00007480F4B98470B2105480E4B984701217A
:102C000003480D4B9847002318460837BD4680BD42
:102C10000030004065290000B92A0000112A000098
:102C200041290000E92A0000392A0000792A000021
:102C30000D2B0000312B0000D129000080B500AF22
:102C40000248034B984700BF80BD00BF00300040E2
:102C5000A929000080B584B000AF78600B46FB70F6
:102C60007B68FB6016E000210F48104B984700BFBF
:102C70000D480F4B9847034603F00403002BF7D091
:102C800009480C4B98470346DAB2FB681A70FB6898
:102C90000133FB60FB785A1EFA70002BE3D100BFB2
:102CA0001037BD4680BD00BF003000404F2B0000F4
:102CB0008D2900006B2B000080B483B000AF7860DA
:102CC000396000BF7B689A683B681340002BF9D1DC
:102CD00000BF0C37BD465DF8047B704780B483B0FD
:102CE00000AF786039607B689A683B681340002BBE
:102CF00014BF01230023DBB218460C37BD465DF834
:102D0000047B704780B584B000AF78600B46FB70E1
:102D10007B681B68FB60FB6823F00203FB60FB78A9
:102D20005B001A46FB681343FB607B68FA681A6015
:102D300003217868024B984700BF1037BD4680BD1D
:102D4000B92C000080B582B000AF78607B681B684A
:102D500023F002027B681A6003217868024B9847CF
:102D600000BF0837BD4680BDB92C000080B584B0D7
:102D700000AF7860396003217868074B98477B681B
:102D80001B68FB60FA683B681340FB60FB681846F1
:102D90001037BD4680BD00BFB92C000080B582B0A1
:102DA00000AF786039607B683A681A600321786800
:102DB000024B984700BF0837BD4680BDB92C0000C4
:102DC00080B483B000AF786039607B683A685A613C
:102DD00000BF0C37BD465DF8047B704780B483B0FC
:102DE00000AF78600B46FB707B68FA789A7700BF7B
:102DF0000C37BD465DF8047B704780B483B000AFEC
:102E0000786039607B683A681A6200BF0C37BD464B
:102E10005DF8047B7047000080B582B000AF786039
:102E200039607B683A68DA6343F6FF717868034B70
:102E3000984700BF0837BD4680BD00BFB92C0000D1
:102E400080B582B000AF786039607B683A681A64F8
:102E500080217868024B984700BF0837BD4680BD87
:102E6000B92C000080B500AF01212048204B9847C5
:102E7000034683F00103DBB2002B11D002211B4873
:102E80001C4B98470346002B06D018481A4B98470E
:102E900002211648194B984701211448184B9847AE
:102EA00001211248154B98474FF400610F48144B0D
:102EB000984701210D48134B984713490B48134B72
:102EC000984713490948134B98474FF448710748EE
:102ED000114B98474FF480710448104B98470121DB
:102EE00002480F4B98470023184680BD00600141FF
:102EF000DD2C00006D2D0000452D0000B92C0000D8
:102F00009D2D0000DD2D0000020F6464C12D000026
:102F100005000007192E0000412E0000FB2D0000C7
:102F2000052D000080B483B000AF7860396000BF29
:102F30007B681A693B681340002BF9D100BF0C373E
:102F4000BD465DF8047B704780B483B000AF786005
:102F500039607B681A693B681340002B14BF01235A
:102F60000023DBB218460C37BD465DF8047B704782
:102F700080B483B000AF78600B46FB707B68FA7852
:102F80005A71FB78DB43DAB27B681A7100BF0C37E9
:102F9000BD465DF8047B704780B483B000AF7860B5
:102FA0000B46FB707B68FA785A72FB78DB43DAB227
:102FB0007B681A7200BF0C37BD465DF8047B704712
:102FC00080B584B000AF78600B46FB707B681B68EF
:102FD000FB60FB6823F00203FB60FB785B001A4692
:102FE000FB681343FB607B68FA681A60032178680A
:102FF000024B984700BF1037BD4680BD252F00000B
:1030000080B582B000AF78607B681B6823F0020255
:103010007B681A6003217868024B984700BF083725
:10302000BD4680BD252F000080B584B000AF78601C
:10303000396003217868074B98477B681B68FB6001
:10304000FA683B681340FB60FB6818461037BD46C2
:1030500080BD00BF252F000080B582B000AF786032
:1030600039607B683A681A6003217868024B984798
:1030700000BF0837BD4680BD252F000080B483B057
:1030800000AF78600B467B807B687A88DA8000BF6F
:103090000C37BD465DF8047B704780B483B000AF49
:1030A00078600B46FB707B68FA78DA7300BF0C37E8
:1030B000BD465DF8047B704780B500AF01211D4817
:1030C0001D4B9847034683F00103DBB2002B11D060
:1030D00002211848194B98470346002B06D0154883
:1030E000174B984702211348164B98470121114866
:1030F000154B984701210F48124B984713490D482B
:10310000114B984700210B48114B98470121094862
:10311000104B9847262107480F4B98472121054817
:103120000E4B9847012103480D4B98470023184642
:1031300080BD00BF00380040492F0000293000004A
:1031400001300000252F0000593000004800020027
:10315000712F00009B3000007D300000992F00008F
:10316000C12F000080B483B000AF0346FB80B7F9E5
:103170000630002B0BDB0949B7F906305B09FA88EA
:1031800002F01F02012000FA02F241F8232000BFE2
:103190000C37BD465DF8047B704700BF00E100E0DE
:1031A00080B483B000AF78600B46FB70FB787A6820
:1031B000DB0113441B6818460C37BD465DF8047BE1
:1031C000704780B485B000AFF8600B467A60FB7240
:1031D000FB7AFA68DB01134418337A681A6000BF7F
:1031E0001437BD465DF8047B704780B483B000AFF0
:1031F00078600B46FB70FB787A68DB011344103370
:103200001B6818460C37BD465DF8047B704780B4D8
:1032100085B000AFF8600B467A60FB72FB7AFA6803
:10322000DB01134414337A681A6000BF1437BD46BB
:103230005DF8047B704780B483B000AF78600B46C4
:10324000FB70FB787A68DB01134420331B68184657
:103250000C37BD465DF8047B7047000080B582B036
:1032600000AF03463960FB711346BB71BB79002B7D
:1032700006D0FB793A6819460648074B984705E09F
:10328000FB793A6819460348044B984700BF083752
:10329000BD4680BD00800041C33100000F320000F8
:1032A00080B586B000AF0346FB7107F10C031846EA
:1032B000134B9847FB7919461248134B984778618E
:1032C000FB7919460F48114B984702467B69DB434F
:1032D00013403B61FB7919460A480D4B984702465B
:1032E0007B6913403A6913433B6107F10C031846AD
:1032F000084B98473B6918461837BD4680BD00BF4C
:103300002D10000000800041A13100003732000084
:10331000EB3100005310000080B582B000AF0346CF
:103320000A46FB711346BB71FB795B09D8B2FB7986
:1033300003F01F03012202FA03F3BA791946034B83
:10334000984700BF0837BD4680BD00BF5D32000012
:1033500080B582B000AF0346FB71FB795B09DBB23D
:103360001846094B98470146FB7903F01F030122D9
:1033700002FA03F30B40002B14BF01230023DBB23E
:1033800018460837BD4680BDA132000080B500AFA9
:10339000024B98470346184680BD00BFED1C000055
:1033A00080B500AF024B98470346184680BD00BF6A
:1033B000751D00000000000098B500AF884A92F823
:1033C0002E3043F0010382F82E30864B1B78DBB29F
:1033D00083F00103DBB2002B08D1834B1B78DBB2F7
:1033E00083F00103DBB2002B00F0E3807C4B9B8871
:1033F000C3F30403DBB2002B74D1794BB3F8403034
:103400009AB27A4B1A807A4BB3F840309AB2794B21
:103410001A80764B1B881A46774B10469847774C94
:1034200065A3D3E90023A04703460C46184621466E
:10343000734C63A3D3E90023A04703460C46194607
:103440002246704B08461146984702466E4B1A605A
:10345000684B1B881A46684B10469847674C56A322
:10346000D3E90023A04703460C4618462146644C86
:1034700055A3D3E90023A04703460C46194622462C
:10348000604B0846114698470246604B1A605E4BF7
:10349000D3ED007A9FED5E7A37EEC77ADFED5D6A95
:1034A000C7EE267A5C4BC3ED007A584BD3ED007A19
:1034B0009FED577A37EEC77ADFED566AC7EE267A68
:1034C000564BC3ED007A474B01221A70444A938849
:1034D000012161F304039380414A137D43F0020309
:1034E000137566E03E4B9B88C3F30403DBB2012BEC
:1034F0005FD13B4BB3F840309AB2494B1A803B4BFB
:103500001B881A463C4B104698473D4C30A3D3E9E4
:103510000023A04703460C4618462146374C26A3F5
:10352000D3E90023A04703460C4619462246354BF3
:1035300008461146984702463A4B1A60394B1A68BA
:10354000394B10469847394C23A3D3E90023A047B1
:1035500003460C4618462146284C4FF00002344BD7
:10356000A04703460C4619462246264B08461146FC
:10357000984702462F4B1A602E4B1A682A4B10466A
:1035800098471E4C14A3D3E90023A04703460C46DA
:10359000194622461B4B0846114698470246264BC1
:1035A0001A60114B01221A700D4A93886FF30403BD
:1035B000938000BF98BD00BF0000000000FEAF4038
:1035C0000000000000C8A940000000000004AA405C
:1035D0006666666666660A40666666666666FA3FA0
:1035E000001C0043A8020020940000209802002044
:1035F00000200043FC010020ED3F00000D430000CF
:10360000B9400000DD44000008020020EC02002068
:103610000080BB4400004843040200205402002004
:10362000100200209C02002011400000513D0000CB
:103630000088814000020020A0020020000000005D
:1036400098B500AF2A4B9B7AC3F30003DBB2002B83
:1036500009D0274A937A43F001039372254B4FF028
:1036600000021A603DE0224B9B7AC3F34003DBB2B9
:10367000002B09D01E4A937A43F0020393721D4B2C
:103680004FF09F421A602CE0194A937A43F01003DE
:103690009372174BDB69184A1360174B1B6807EED0
:1036A000903AF8EE677A9FED157A67EE877A144BB9
:1036B000C3ED007A124B1A68124B10469847024627
:1036C0000B46114C08A1D1E90001A04703460C4666
:1036D000194622460D4B0846114698470246054BAF
:1036E0001A6000BF98BD00BF18D1A0CFEF25C33F1F
:1036F0000038004024010020A402002077CC2B32A7
:103700000C020020114000000D430000DD440000C9
:1037100080B483B000AF0346FB71064AFB790649CB
:1037200031F81330A2F8643000BF0C37BD465DF8A5
:10373000047B7047006001417400002080B483B0B6
:1037400000AF0346FB71FB79204AD25C204B1A7014
:103750001F4B1B78052B09D11D4B5B78002B05D126
:103760001C4B1B6801331B4A13600CE0184B1B7881
:10377000002B08D1164B5B78052B04D1154B1B6829
:10378000013B144A1360134B1A6813469B00134401
:103790000F4A5278134407EE903AF8EEE77A0E4B50
:1037A000C3ED007A0C4B93ED007ADFED0C6AC7EEA7
:1037B000267A0B4BC3ED007A054B1A78044B5A70EE
:1037C00000BF0C37BD465DF8047B70476C000020DD
:1037D0002C01002030010020380100200000284288
:1037E0003401002090B587B002AF954B00221A80BB
:1037F000934B00225A80924B4FF000025A60904B3C
:1038000000221A818E4B00225A818D4B4FF000020C
:10381000DA608B4B00221A61894B4FF000025A612B
:10382000874B4FF000029A61854B4FF00002DA613E
:10383000834B4FF000021A62814B4FF000025A6234
:103840007F4B4FF000029A627D4B4FF00002DA622C
:103850007B4B4FF000021A63794B4FF000025A6322
:10386000774B4FF000029A63754B4FF00002DA631A
:10387000744B01221A80734B02225A80714B724A98
:103880005A60704B04221A816E4B05225A816D4B8F
:103890006E4ADA606B4B07221A616A4B4FF0824224
:1038A0005A61684B6A4A9A61664B6A4ADA61654BAB
:1038B000694A1A62634B694A5A62624B684A9A6261
:1038C000604B684ADA625F4B674A1A635D4B4FF0A0
:1038D00083425A635B4B654A9A635A4B644ADA6384
:1038E000644B9847644B9847644B98476448654BD2
:1038F000984700216448654B984700216448634B12
:1039000098476B20634B98477720624B9847624AF1
:1039100092F82D3043F0010382F82D3001210E2062
:103920005E4B98475E4B98475E4B98475E4B984777
:1039300044F20C3302220C215C485D4CA04720234A
:10394000022240215B485A4CA04744F21033022225
:1039500010215948564CA047584B9847584B1B7854
:10396000002B00F0A781574B1B78DBB2002BF3D064
:10397000554B1B78DBB2002BEED0524B00221A7055
:10398000514B00221A70514B00221A701820504BD4
:1039900098470346FB6017204D4B98470346BB6092
:1039A00036204B4B984703467B60FB68DBB29B009D
:1039B000DAB2BB68DBB25B00DBB21343DAB27B681E
:1039C000DBB21343DAB2414B1A70404B1B78013B18
:1039D000052B00F28E8001A252F823F0F539000089
:1039E000073A0000193A00002B3A0000353A00006F
:1039F000E13A0000374BD3ED007AF1EE677A364BAF
:103A0000C3ED007A75E0354BD3ED007AF1EE677ABD
:103A1000314BC3ED007A6CE02E4BD3ED007AF1EE22
:103A2000677A2D4BC3ED007A63E02C4B1B682A4A62
:103A300013605EE0294B1B68274A136059E000BF02
:103A400014020020AC020020000040400000C040F2
:103A500000001041000020410000304100004041C2
:103A600000005041000060410000704100008841AA
:103A700000009041D10200008D330000A13300000E
:103A8000A8010020D9100000A0010020E90F0000CB
:103A9000A401002065310000001C00431933000020
:103AA000852B00003D2C00008D1400000C00002030
:103AB00055120000E0000020DC0000202915000065
:103AC000A8000020A8020020940000202801002067
:103AD0005133000004020020200100205402002085
:103AE000764BD3ED007AF1EE677A754BC3ED007A31
:103AF00000BF744B1B781846734B9847734B1B7869
:103B0000012B30D1724B1968724B1A68724B1868CE
:103B1000724B93ED007A724BD3ED007A67EE277A01
:103B2000CDED007A03466F486F4CA0476D4BD3ED47
:103B3000006A6B4B93ED007AC6EE877A6B4BC3ED50
:103B4000007A6A4B19685E4B1868694B1C68694BB0
:103B50001B68694A1268019200932346024667482F
:103B6000674CA04752E0594B1B78022B3DD1654B67
:103B70001968654B1A68654B1868654B1B6800939C
:103B800003466448584CA047624B1968514B1A6869
:103B9000514B1868514B93ED007A514BD3ED007A9D
:103BA00067EE277ACDED007A03464E484E4CA0478B
:103BB0004C4BD3ED006A4A4B93ED007AC6EE877A00
:103BC0004A4BC3ED007A494B19683D4B1868484B86
:103BD0001C68484B1B68484A1268019200932346B0
:103BE00002464648464CA04710E04B4B1968344B00
:103BF00018683F4B1C683F4B1B683F4A1268019294
:103C00000093234602463D483D4CA0473B4B93ED75
:103C1000007A334BD3ED006A2E4BD3ED007A66EE7B
:103C2000A77A77EE277A9FED3D7A27EE877AF3EE33
:103C3000086AC7EE267A3A4BC3ED007A384BD3EDCB
:103C4000007AF5EEC07AF1EE10FA4CBF01230023A2
:103C5000DBB21A46334B1A70324B1B78DB005AB278
:103C6000184B1B785BB213435BB2DAB2154B1A7078
:103C7000144B1B7818462C4B98472C4B00221A608B
:103C80002023022240212A482A4CA04744F208332C
:103C9000022210212848274CA0474FF4403303222A
:103CA00040212648264CA047264B1B680133254A55
:103CB000136051E61D4B00221A604DE604020020FD
:103CC00020010020280100203D3700009101002044
:103CD0007401002024010020800100209C000020AD
:103CE000A40000204C0100200D14000098010020C9
:103CF000880100208C010020980000203C01002059
:103D0000311300006C010020380100207C010020EC
:103D1000A00000205C010020780100200000FA448F
:103D200094010020900100201137000070600141D3
:103D3000AC0200205512000058000020BC010020F9
:103D4000C91200001800002081F0004102E000BF0D
:103D500083F0004330B54FEA41044FEA430594EA4B
:103D6000050F08BF90EA020F1FBF54EA000C55EA86
:103D7000020C7FEA645C7FEA655C00F0E2804FEA57
:103D80005454D4EB5555B8BF6D420CDD2C4480EA39
:103D9000020281EA030382EA000083EA010180EA69
:103DA000020281EA0303362D88BF30BD11F0004FB7
:103DB0004FEA01314FF4801C4CEA113102D04042ED
:103DC00061EB410113F0004F4FEA03334CEA133328
:103DD00002D0524263EB430394EA050F00F0A78040
:103DE000A4F10104D5F1200E0DDB02FA0EFC22FA3B
:103DF00005F2801841F1000103FA0EF2801843FA2F
:103E000005F359410EE0A5F120050EF1200E012A1F
:103E100003FA0EFC28BF4CF0020C43FA05F3C0185D
:103E200051EBE37101F0004507D54FF0000EDCF1D6
:103E3000000C7EEB00006EEB0101B1F5801F1BD37F
:103E4000B1F5001F0CD349085FEA30004FEA3C0C83
:103E500004F101044FEA445212F5800F80F09A8079
:103E6000BCF1004F08BF5FEA500C50F1000041EB7D
:103E7000045141EA050130BD5FEA4C0C404141EB81
:103E8000010111F4801FA4F10104E9D191F0000FA8
:103E900004BF01460020B1FA81F308BF2033A3F12B
:103EA0000B03B3F120020CDA0C3208DD02F1140C22
:103EB000C2F10C0201FA0CF021FA02F10CE002F15D
:103EC0001402D8BFC2F1200C01FA02F120FA0CFC56
:103ED000DCBF41EA0C019040E41AA2BF01EB04519F
:103EE000294330BD6FEA04041F3C1CDA0C340EDC9D
:103EF00004F11404C4F1200220FA04F001FA02F3E0
:103F000040EA030021FA04F345EA030130BDC4F19D
:103F10000C04C4F1200220FA02F001FA04F340EA92
:103F20000300294630BD21FA04F0294630BD94F043
:103F3000000F83F4801306BF81F480110134013D2A
:103F40004EE77FEA645C18BF7FEA655C29D094EA9B
:103F5000050F08BF90EA020F05D054EA000C04BF19
:103F60001946104630BD91EA030F1EBF0021002004
:103F700030BD5FEA545C05D14000494128BF41F0A3
:103F8000004130BD14F580043CBF01F5801130BD07
:103F900001F0004545F0FE4141F470014FF0000092
:103FA00030BD7FEA645C1ABF194610467FEA655C43
:103FB0001CBF0B46024650EA013406BF52EA0335E5
:103FC00091EA030F41F4002130BD00BF90F0000FD3
:103FD00004BF0021704730B54FF4806404F132040F
:103FE0004FF000054FF0000150E700BF90F0000FC8
:103FF00004BF0021704730B54FF4806404F13204EF
:1040000010F0004548BF40424FF000013EE700BFBE
:1040100042004FEAE2014FEA31014FEA02701FBF4E
:1040200012F07F4393F07F4F81F06051704792F020
:10403000000F14BF93F07F4F704730B54FF460749A
:1040400001F0004521F0004120E700BF50EA0102E5
:1040500008BF704730B54FF000050AE050EA010292
:1040600008BF704730B511F0004502D5404261EB02
:1040700041014FF4806404F132045FEA915C3FF443
:10408000DCAE4FF003025FEADC0C18BF03325FEADC
:10409000DC0C18BF033202EBDC02C2F1200300FA91
:1040A00003FC20FA02F001FA03FE40EA0E0021FAB6
:1040B00002F11444C1E600BF70B54FF0FF0C4CF4A0
:1040C000E06C1CEA11541DBF1CEA135594EA0C0F56
:1040D00095EA0C0F00F0DEF82C4481EA030621EA91
:1040E0004C5123EA4C5350EA013518BF52EA0335CC
:1040F00041F4801143F4801338D0A0FB02CE4FF07E
:104100000005E1FB02E506F00042E0FB03E54FF0AD
:104110000006E1FB03569CF0000F18BF4EF0010EA5
:10412000A4F1FF04B6F5007F64F5407404D25FEAA1
:104130004E0E6D4146EB060642EAC62141EA555154
:104140004FEAC52040EA5E504FEACE2EB4F1FD0C96
:1041500088BFBCF5E06F1ED8BEF1004F08BF5FEA14
:10416000500E50F1000041EB045170BD06F00046C6
:1041700046EA010140EA020081EA0301B4EB5C0473
:10418000C2BFD4EB0C0541EA045170BD41F480116B
:104190004FF0000E013C00F3AB8014F1360FDEBF90
:1041A000002001F0004170BDC4F10004203C35DA6C
:1041B0000C341BDC04F11404C4F1200500FA05F3EF
:1041C00020FA04F001FA05F240EA020001F0004290
:1041D00021F0004110EBD37021FA04F642EB060106
:1041E0005EEA430E08BF20EAD37070BDC4F10C0430
:1041F000C4F1200500FA04F320FA05F001FA04F2F4
:1042000040EA020001F0004110EBD37041F10001DF
:104210005EEA430E08BF20EAD37070BDC4F12005EA
:1042200000FA05F24EEA020E20FA04F301FA05F252
:1042300043EA020321FA04F001F0004121FA04F2FA
:1042400020EA020000EBD3705EEA430E08BF20EACA
:10425000D37070BD94F0000F0FD101F00046400004
:1042600041EB010111F4801F08BF013CF7D041EA86
:10427000060195F0000F18BF704703F0004652008A
:1042800043EB030313F4801F08BF013DF7D043EA5B
:104290000603704794EA0C0F0CEA135518BF95EA11
:1042A0000C0F0CD050EA410618BF52EA4306D1D198
:1042B00081EA030101F000414FF0000070BD50EAB7
:1042C000410606BF1046194652EA430619D094EA41
:1042D0000C0F02D150EA013613D195EA0C0F05D12B
:1042E00052EA03361CBF104619460AD181EA03017F
:1042F00001F0004141F0FE4141F470014FF0000037
:1043000070BD41F0FE4141F4780170BD70B54FF0D1
:10431000FF0C4CF4E06C1CEA11541DBF1CEA135551
:1043200094EA0C0F95EA0C0F00F0A7F8A4EB050433
:1043300081EA030E52EA03354FEA013100F088802A
:104340004FEA03334FF0805545EA131343EA1263F3
:104350004FEA022245EA111545EA10654FEA0026A8
:104360000EF000419D4208BF964244F1FD0404F561
:10437000407402D25B084FEA3202B61A65EB0305BD
:104380005B084FEA32024FF480104FF4002CB6EB7A
:10439000020E75EB030E22BFB61A754640EA0C00FA
:1043A0005B084FEA3202B6EB020E75EB030E22BF3A
:1043B000B61A754640EA5C005B084FEA3202B6EB7B
:1043C000020E75EB030E22BFB61A754640EA9C003A
:1043D0005B084FEA3202B6EB020E75EB030E22BF0A
:1043E000B61A754640EADC0055EA060E18D04FEAC8
:1043F000051545EA16754FEA06164FEAC30343EA68
:1044000052734FEAC2025FEA1C1CC0D111F4801F34
:104410000BD141EA00014FF000004FF0004CB6E72D
:1044200011F4801F04BF01430020B4F1FD0C88BFCC
:10443000BCF5E06F3FF6AFAEB5EB030C04BFB6EBD7
:10444000020C5FEA500C50F1000041EB045170BDCA
:104450000EF0004E4EEA113114EB5C04C2BFD4EBF7
:104460000C0541EA045170BD41F480114FF0000E7B
:10447000013C90E645EA060E8DE60CEA135594EAF7
:104480000C0F08BF95EA0C0F3FF43BAF94EA0C0FFA
:104490000AD150EA01347FF434AF95EA0C0F7FF46F
:1044A00025AF104619462CE795EA0C0F06D152EAC3
:1044B00003353FF4FDAE1046194622E750EA4106A7
:1044C00018BF52EA43067FF4C5AE50EA41047FF4B8
:1044D0000DAF52EA43057FF4EBAE12E74FEA41021B
:1044E000B2F1E04324BFB3F5001CDCF1FE5C0DD952
:1044F00001F0004C4FEAC0024CEA5070B2F1004F9C
:1045000040EB830008BF20F00100704711F0804F9E
:1045100021D113F13872BCBF01F00040704741F463
:1045200080114FEA5252C2F11802C2F1200C10FA67
:104530000CF320FA02F018BF40F001004FEAC1234B
:104540004FEAD32303FA0CFC40EA0C0023FA02F3EF
:104550004FEA4303CCE77FEA625307D150EA0133C5
:104560001EBF4FF0FE4040F44000704701F0004095
:1045700040F0FE4040F40000704700BF70B50D4EA3
:104580000D4CA41BA4100025A54209D10B4E0C4CC8
:1045900000F0FCF8A41BA4100025A54205D170BDB5
:1045A00056F8253098470135EEE756F825309847FC
:1045B0000135F2E79847000098470000984700004F
:1045C0009C4700002E2E2F68706C2F706F72742F16
:1045D00068706C5F6770696F5F626173652E6800F9
:1045E0002E2E2F68616C2F7372632F68616C5F6170
:1045F00064635F73796E632E630000002E2E2F6854
:10460000616C2F7372632F68616C5F717370695F87
:1046100073796E632E630000000000000000030247
:104620000018440400000000000000000100010028
:104630000000000003020018440400000000000015
:10464000000001002E2E2F68706C2F6164632F68AC
:10465000706C5F6164632E630000000000444400DE
:10466000004404000244041600440400000000005A
:10467000000000000000000000000000000000003A
:10468000000000000000000000000000000000002A
:104690000000000000000000000000000100000019
:1046A0000000000000000001000100000000000008
:1046B00000000000294274420000000000000000D9
:1046C00000000000000000000000000000000000EA
:1046D00000000000000000000000000000000000DA
:1046E00000000000000000000000000000000000CA
:1046F00000000000000000000000000000000000BA
:1047000000000000000000000000000000000000A9
:104710000000000000000000000000000000000099
:104720000000000000000000000000000000000089
:104730000000000000000000000000000000000079
:104740000000000000000000000000000000000069
:104750000000000000000000000000000000000059
:104760000000000000000000000000000000000049
:10477000000000002E2E2F68706C2F717370692F4F
:1047800068706C5F717370692E630000F8B500BFCC
:10479000F8BC08BC9E46704789020000F8B500BF0F
:0C47A000F8BC08BC9E4670476502000093
:1047AC0001020304050600000050C346000000404F
:1047BC0000000000000000400000000001000000AC
:1047CC0002000000040000000800000010000000BF
:1047DC0020000000400000008000000000010000EC
:1047EC000004000000800000000001000000200018
:1047FC000000000400000080001040000000008059
:10480C0000184000000000800102030400050304AE
:10481C0001000200FF00D210E440D24036203610D6
:10482C00E420FF00FF00E42036103620D240E440A4
:10483C00D210FF00010000000000C0419A99993E7F
:0C484C0000002F4426E4033D01000000A2
:00000001FF
